:020000040000FA
:20000000209BC9A91648A9009DB8049DB8039D38049DB8059D38069DB806B982C0852B4A9D
:200020004A90046829FE48B8B981C04AB0074AB00EA901D03D4AA903B002A9809DB8042C43
:2000400058FFA52B292049209DB803700A209BC8AEF8079DB80560A52B4A4A2903A8F004DF
:2000600068297F48B9A6C99D3806A42668299548A9099D3805689D3807A52B4829A05002EA
:20008000298020A1CD2081CD68290C5002A9000A0A0A090B998AC0B988C060209BC920AA5F
:2000A000C8297FACF807BEB8056020FFCAB005202CCC90F660201ECA68A868AAA52760F068
:2000C00029BDB80610055EB806D024203ECC901ABDB80329C0F00EA527C9E09008BDB8049E
:2000E00009409DB80428F0D0D0CB20FFCA90DC2011CC2808F0DA20D1C94CD0C8201ACBB03C
:20010000B7A52748BD380729C0D016A524F042C908F004C910D00A09F03DB80618652485BC
:2001200024BDB806C524F029A9A09008BD38070A101FA98885272C58FF08700CEA2C58FFB7
:2001400050B8AEF8074CEFC920B5C9206BCB4C68C968B8088527482068CB20B5C968498D2A
:200160000AD0059DB8068524BDB804100DBD3806F00818FDB806A98D90DA2870A4BD380768
:200180003016BCB8060A300E98A00038FD3806C9F890036927A884244CB8C88EF807842675
:2001A000A9009DB80560294850848527209BC92063CB4CA3C8A52749080AF00449EED00937
:2001C000DEB80610039DB80660C9C0B0FBFEB80660BD38072908F016BDB804A427C094D0CA
:2001E000040980D006C092D005297F9DB804608A0A0A0A0A8526A9009DB805700FA000B1E4
:200200003C85272002CC20BAFC90F26020D2CA90FBB988C0A000913C20BAFC90EF60BDB871
:20022000041031A90248A97F20E2CDA424B1288527A907254FD010A424A9DFD128D002A57E
:20024000279128E64FE64FBDB80430092011CC68A98D85276020FFCA900C2011CC20D1C9BF
:2002600020A3CC4C2BCA203ECC90C670BEBD38070A102268A8A527C001F020B034C99BD003
:2002800006C898484C2BCAC9C19008C9DBB0040920852798482068CB4C2BCAC99BF0E2C9AD
:2002A000B0900AC9BBB006A8B909CA8527A000F0E2C99BD0DEA000F0C99B9C9FDBDCDFFB96
:2002C000FCFDFEFFA2CACAD0FD38E901D0F6AEF80760A426B989C04829204A4A85356829F4
:2002E0000FC90890042907B002A5350535F00509209DB80560A426B989C02970C9106020FE
:20030000D2CA9015B988C00980C98AD009A8BD38072920D0039838601860A426B981C04A70
:20032000B036BDB8042907F00520FCCD3860A527297FDD3805D005FEB8043860BD380729DE
:2003400008F01520FFCA9010C993F00E48BD38074A4A6890049DB806186020AAC8C991D04A
:20036000F91860201ACBB0F1209ECCA426B981C04A904E4A904BA52748BD3804C9679010EE
:20038000C96CB022C96B6848499B297FD018B019BDB804291F098085272002CC20AAC84976
:2003A00086D0ED9D3804DE3804688527498D0AD00ABDB8032930F0039D38042002CC4CEA78
:2003C000CB2002CC0AA8BDB803C018F00C4A4AC014F0064A4AC01AD0252903F00DA8B9FE1D
:2003E000CBA8A92020C4CA88D0F8A5270AC91AD00DBD38076A9007A98A85274C6BCB60016E
:20040000084020F5CAD0FB980989A8A52799FFBF6048A424A527912868C995D00CA527C9C9
:2004200020B00620DFCC59DBCC85276018BD38072904F009AD00C010048D10C03860E64E2B
:20044000D002E64F202CCCB890F32011CC297FDD3805D03DA426B981C04AB035A00AB9938D
:20046000CC8527984820A3CC68A88810F1A901207BCE2034CC10FBC988F0E1852720A3CC61
:20048000201ACBBDB8042907D0E8A98D85272C58FF3860BAC3D3D3A0C5CCD0D0C18DBD38C2
:2004A000071013BD38072902F00DBDB8042938F0068A48A9AF486020DFCC0980C9E09006B9
:2004C00059D3CC4CF6FDC9C190F9C9DBB0F559D7CC90F02000E020000000C00000E0C0BDD0
:2004E000B8032A2A2A2903A8A527604267C05447A64387A65147B852C7AC5AE7F34990D3B4
:200500004B90DF45438046E3044CE30158E3085483405343404DE3200042F67C50F69A4464
:20052000F69B46F6464CF64043F63A54D6344E90E853566000A93FA007D010A9CFA005D02A
:200540000AA9F3A003D004A9FCA0013DB803852ABD38042903186A2A88D0FC052A9DB803E5
:200560006029070A0A0A852A0AC526F00FBDB80429C7052A9DB804A9009D380660290FD04D
:2005800007B981C04A4A4A4A0910852AA9E0852BB98BC0252B052A998BC060880A0A0A0ABA
:2005A0000A852AA91FD0E71EB80438B0109989C02093FE2089FEAEF8071EB804187EB8041E
:2005C00060B98AC048090C998AC0A9E920C4CA68998AC060A9289D3806A9801D3807D00587
:2005E000A9FE3D38079D380760C928900E9D3806A93FD0EE1E3805387E380560A8A5272941
:200600007FC920D009C003F00160A904D06DC90DD0122079CEC007F00160A9CD48BD3804AD
:2006200048A426608535A9CE48B930CE48A53560A73761898AA78989DD3805D006DEB80401
:200640004C02CCC930900DC93AB009290F9D3804A902D027C920B0069D38054C79CEA000CF
:20066000F04D4930C90AB00DA00A7D380488D0FA9D3804F015A02ED036A900852AAEF807C8
:20068000BDB80429F8052A9DB80460A8BD3804C044F009C045D0111D3807D00549FF3D3866
:2006A000079D3807A906D0D3A9209DB805D0F5B9EBCCF0F4C535F005C8C8C8D0F2C8B9EB54
:2006C000CC852A2920D007BD38072910D0EBBD38074A4A242AB00410E0300250DCA52A4898
:2006E0002907207BCEC8682910D007B9EBCC9D380460A9CD48B9EBCC48A426BD380460C21D
:200700002C58FF700C389018B8500601318E94979A852786358A48984808788DFFCF2058FB
:20072000FFBABD00018DF807AA0A0A0A0A8526A82850291E38055E3805B98AC0291FD005DA
:20074000A9EF2005C8E437D00BA907C536F0058536189008E439D0F9A9058538BD3807299D
:20076000020890034CBFC8BDB804480A100EA635A52709209D00028527AEF8076829BF9D6B
:20078000B80428F0062063CB4CB5C84CFCC82000C8A200604C9BC84CAAC94A209BC9B0087A
:2007A00020F5CAF00618900320D2CABDB805AA60A203B53648CA10FAAEF807BD380685366A
:2007C000BDB80429384A4A4A09C085378A48A52748098020EDFD688527688DF807AA0A0A9D
:2007E0000A0A85268DFFCFA5369D3806A200689536E8E00490F8AEF80760C1D0D0CCC508F9
:00000001FF
